{
  "contractName": "Leases",
  "abi": [
    {
      "constant": true,
      "inputs": [
        {
          "name": "",
          "type": "address"
        }
      ],
      "name": "ownershipContractCount",
      "outputs": [
        {
          "name": "",
          "type": "uint256"
        }
      ],
      "payable": false,
      "stateMutability": "view",
      "type": "function"
    },
    {
      "constant": true,
      "inputs": [
        {
          "name": "",
          "type": "uint256"
        }
      ],
      "name": "leaseIndexToOwner",
      "outputs": [
        {
          "name": "",
          "type": "address"
        }
      ],
      "payable": false,
      "stateMutability": "view",
      "type": "function"
    },
    {
      "constant": true,
      "inputs": [],
      "name": "leasesCount",
      "outputs": [
        {
          "name": "",
          "type": "uint256"
        }
      ],
      "payable": false,
      "stateMutability": "view",
      "type": "function"
    },
    {
      "constant": true,
      "inputs": [
        {
          "name": "",
          "type": "uint256"
        }
      ],
      "name": "leases",
      "outputs": [
        {
          "name": "landlord",
          "type": "address"
        },
        {
          "name": "tenant",
          "type": "address"
        },
        {
          "name": "litigator",
          "type": "address"
        },
        {
          "name": "physicalAddress",
          "type": "string"
        },
        {
          "name": "hashId",
          "type": "string"
        },
        {
          "name": "state",
          "type": "string"
        },
        {
          "name": "signature",
          "type": "bool"
        },
        {
          "name": "index",
          "type": "uint256"
        }
      ],
      "payable": false,
      "stateMutability": "view",
      "type": "function"
    },
    {
      "constant": true,
      "inputs": [
        {
          "name": "",
          "type": "uint256"
        }
      ],
      "name": "leasesDetails",
      "outputs": [
        {
          "name": "rentPerMonth",
          "type": "uint256"
        },
        {
          "name": "depositToPay",
          "type": "uint256"
        },
        {
          "name": "depositPaid",
          "type": "uint256"
        },
        {
          "name": "totalRentToPay",
          "type": "uint256"
        },
        {
          "name": "rentPaid",
          "type": "uint256"
        },
        {
          "name": "durationInMonth",
          "type": "uint256"
        },
        {
          "name": "balanceToBeWithdrawn",
          "type": "uint256"
        }
      ],
      "payable": false,
      "stateMutability": "view",
      "type": "function"
    },
    {
      "inputs": [],
      "payable": false,
      "stateMutability": "nonpayable",
      "type": "constructor"
    },
    {
      "anonymous": false,
      "inputs": [
        {
          "indexed": true,
          "name": "index",
          "type": "uint256"
        }
      ],
      "name": "leaseCreatedEvent",
      "type": "event"
    },
    {
      "anonymous": false,
      "inputs": [
        {
          "indexed": true,
          "name": "index",
          "type": "uint256"
        }
      ],
      "name": "leaseSignedEvent",
      "type": "event"
    },
    {
      "anonymous": false,
      "inputs": [
        {
          "indexed": true,
          "name": "index",
          "type": "uint256"
        }
      ],
      "name": "depositFullEvent",
      "type": "event"
    },
    {
      "anonymous": false,
      "inputs": [
        {
          "indexed": true,
          "name": "index",
          "type": "uint256"
        }
      ],
      "name": "rentPaidMonth",
      "type": "event"
    },
    {
      "anonymous": false,
      "inputs": [
        {
          "indexed": true,
          "name": "index",
          "type": "uint256"
        }
      ],
      "name": "rentWithdrawn",
      "type": "event"
    },
    {
      "anonymous": false,
      "inputs": [
        {
          "indexed": true,
          "name": "index",
          "type": "uint256"
        }
      ],
      "name": "depositWithdrawn",
      "type": "event"
    },
    {
      "constant": false,
      "inputs": [
        {
          "name": "_tenant",
          "type": "address"
        },
        {
          "name": "_litigator",
          "type": "address"
        },
        {
          "name": "_physicalAddress",
          "type": "string"
        },
        {
          "name": "_rentPerMonth",
          "type": "uint256"
        },
        {
          "name": "_deposit",
          "type": "uint256"
        }
      ],
      "name": "createLease",
      "outputs": [
        {
          "name": "",
          "type": "bool"
        }
      ],
      "payable": false,
      "stateMutability": "nonpayable",
      "type": "function"
    },
    {
      "constant": false,
      "inputs": [
        {
          "name": "_index",
          "type": "uint256"
        }
      ],
      "name": "signLease",
      "outputs": [
        {
          "name": "",
          "type": "bool"
        }
      ],
      "payable": false,
      "stateMutability": "nonpayable",
      "type": "function"
    },
    {
      "constant": false,
      "inputs": [
        {
          "name": "_index",
          "type": "uint256"
        }
      ],
      "name": "payDeposit",
      "outputs": [
        {
          "name": "",
          "type": "bool"
        }
      ],
      "payable": true,
      "stateMutability": "payable",
      "type": "function"
    },
    {
      "constant": false,
      "inputs": [
        {
          "name": "_index",
          "type": "uint256"
        }
      ],
      "name": "payRent",
      "outputs": [
        {
          "name": "",
          "type": "bool"
        }
      ],
      "payable": true,
      "stateMutability": "payable",
      "type": "function"
    },
    {
      "constant": false,
      "inputs": [
        {
          "name": "_index",
          "type": "uint256"
        }
      ],
      "name": "withdrawRent",
      "outputs": [
        {
          "name": "",
          "type": "bool"
        }
      ],
      "payable": false,
      "stateMutability": "nonpayable",
      "type": "function"
    },
    {
      "constant": false,
      "inputs": [
        {
          "name": "_index",
          "type": "uint256"
        }
      ],
      "name": "withdrawDeposit",
      "outputs": [
        {
          "name": "",
          "type": "bool"
        }
      ],
      "payable": false,
      "stateMutability": "nonpayable",
      "type": "function"
    },
    {
      "constant": true,
      "inputs": [
        {
          "name": "_a",
          "type": "string"
        },
        {
          "name": "_b",
          "type": "string"
        }
      ],
      "name": "compare",
      "outputs": [
        {
          "name": "",
          "type": "int256"
        }
      ],
      "payable": false,
      "stateMutability": "pure",
      "type": "function"
    },
    {
      "constant": true,
      "inputs": [
        {
          "name": "_a",
          "type": "string"
        },
        {
          "name": "_b",
          "type": "string"
        }
      ],
      "name": "equal",
      "outputs": [
        {
          "name": "",
          "type": "bool"
        }
      ],
      "payable": false,
      "stateMutability": "pure",
      "type": "function"
    },
    {
      "constant": true,
      "inputs": [
        {
          "name": "_haystack",
          "type": "string"
        },
        {
          "name": "_needle",
          "type": "string"
        }
      ],
      "name": "indexOf",
      "outputs": [
        {
          "name": "",
          "type": "int256"
        }
      ],
      "payable": false,
      "stateMutability": "pure",
      "type": "function"
    }
  ],
  "bytecode": "0x608060405234801561001057600080fd5b50612090806100206000396000f3006080604052600436106100d0576000357c0100000000000000000000000000000000000000000000000000000000900463ffffffff16806321c8dee3146100d557806326dd50be1461012c57806328cd3f181461019957806333289a46146101d15780633a96fdd71461021657806346bdca9a146102d957806348ae6bc7146103a057806374cdf283146103cb5780638927a106146104105780638a0807b714610639578063cfc78a12146106fc578063d03974bc14610741578063d9e8843f14610816578063e5c29f3b1461084e575b600080fd5b3480156100e157600080fd5b50610116600480360381019080803573ffffffffffffffffffffffffffffffffffffffff1690602001909291905050506108b9565b6040518082815260200191505060405180910390f35b34801561013857600080fd5b50610157600480360381019080803590602001909291905050506108d1565b604051808273ffffffffffffffffffffffffffffffffffffffff1673ffffffffffffffffffffffffffffffffffffffff16815260200191505060405180910390f35b6101b760048036038101908080359060200190929190505050610904565b604051808215151515815260200191505060405180910390f35b3480156101dd57600080fd5b506101fc60048036038101908080359060200190929190505050610a9b565b604051808215151515815260200191505060405180910390f35b34801561022257600080fd5b506102c3600480360381019080803590602001908201803590602001908080601f0160208091040260200160405190810160405280939291908181526020018383808284378201915050505050509192919290803590602001908201803590602001908080601f0160208091040260200160405190810160405280939291908181526020018383808284378201915050505050509192919290505050610d3b565b6040518082815260200191505060405180910390f35b3480156102e557600080fd5b50610386600480360381019080803590602001908201803590602001908080601f0160208091040260200160405190810160405280939291908181526020018383808284378201915050505050509192919290803590602001908201803590602001908080601f0160208091040260200160405190810160405280939291908181526020018383808284378201915050505050509192919290505050610ff2565b604051808215151515815260200191505060405180910390f35b3480156103ac57600080fd5b506103b5611008565b6040518082815260200191505060405180910390f35b3480156103d757600080fd5b506103f66004803603810190808035906020019092919050505061100e565b604051808215151515815260200191505060405180910390f35b34801561041c57600080fd5b5061043b60048036038101908080359060200190929190505050611182565b604051808973ffffffffffffffffffffffffffffffffffffffff1673ffffffffffffffffffffffffffffffffffffffff1681526020018873ffffffffffffffffffffffffffffffffffffffff1673ffffffffffffffffffffffffffffffffffffffff1681526020018773ffffffffffffffffffffffffffffffffffffffff1673ffffffffffffffffffffffffffffffffffffffff16815260200180602001806020018060200186151515158152602001858152602001848103845289818151815260200191508051906020019080838360005b8381101561052957808201518184015260208101905061050e565b50505050905090810190601f1680156105565780820380516001836020036101000a031916815260200191505b50848103835288818151815260200191508051906020019080838360005b8381101561058f578082015181840152602081019050610574565b50505050905090810190601f1680156105bc5780820380516001836020036101000a031916815260200191505b50848103825287818151815260200191508051906020019080838360005b838110156105f55780820151818401526020810190506105da565b50505050905090810190601f1680156106225780820380516001836020036101000a031916815260200191505b509b50505050505050505050505060405180910390f35b34801561064557600080fd5b506106e6600480360381019080803590602001908201803590602001908080601f0160208091040260200160405190810160405280939291908181526020018383808284378201915050505050509192919290803590602001908201803590602001908080601f016020809104026020016040519081016040528093929190818152602001838380828437820191505050505050919291929050505061140e565b6040518082815260200191505060405180910390f35b34801561070857600080fd5b506107276004803603810190808035906020019092919050505061172d565b604051808215151515815260200191505060405180910390f35b34801561074d57600080fd5b506107fc600480360381019080803573ffffffffffffffffffffffffffffffffffffffff169060200190929190803573ffffffffffffffffffffffffffffffffffffffff169060200190929190803590602001908201803590602001908080601f016020809104026020016040519081016040528093929190818152602001838380828437820191505050505050919291929080359060200190929190803590602001909291905050506118cb565b604051808215151515815260200191505060405180910390f35b61083460048036038101908080359060200190929190505050611ce0565b604051808215151515815260200191505060405180910390f35b34801561085a57600080fd5b5061087960048036038101908080359060200190929190505050611eee565b6040518088815260200187815260200186815260200185815260200184815260200183815260200182815260200197505050505050505060405180910390f35b60046020528060005260406000206000915090505481565b60036020528060005260406000206000915054906101000a900473ffffffffffffffffffffffffffffffffffffffff1681565b6000808281548110151561091457fe5b906000526020600020906008020160010160009054906101000a900473ffffffffffffffffffffffffffffffffffffffff1673ffffffffffffffffffffffffffffffffffffffff163373ffffffffffffffffffffffffffffffffffffffff1614151561097f57600080fd5b60018281548110151561098e57fe5b906000526020600020906007020160010154341415156109ad57600080fd5b346001838154811015156109bd57fe5b9060005260206000209060070201600201600082825401925050819055506040805190810160405280600681526020017f6163746976650000000000000000000000000000000000000000000000000000815250600083815481101515610a2057fe5b90600052602060002090600802016005019080519060200190610a44929190611f3f565b50600082815481101515610a5457fe5b9060005260206000209060080201600701547fb19ca84be9376775e034eadc913e2100d78b78c693ca9105005ba40887b8b39760405160405180910390a260019050919050565b60008082815481101515610aab57fe5b906000526020600020906008020160010160009054906101000a900473ffffffffffffffffffffffffffffffffffffffff1673ffffffffffffffffffffffffffffffffffffffff163373ffffffffffffffffffffffffffffffffffffffff16141515610b1657600080fd5b610c0d600083815481101515610b2857fe5b90600052602060002090600802016005018054600181600116156101000203166002900480601f016020809104026020016040519081016040528092919081815260200182805460018160011615610100020316600290048015610bcd5780601f10610ba257610100808354040283529160200191610bcd565b820191906000526020600020905b815481529060010190602001808311610bb057829003601f168201915b50505050506040805190810160405280600881526020017f636f6d706c657465000000000000000000000000000000000000000000000000815250610ff2565b1515610c1857600080fd5b6000600183815481101515610c2957fe5b906000526020600020906007020160020181905550600082815481101515610c4d57fe5b906000526020600020906008020160010160009054906101000a900473ffffffffffffffffffffffffffffffffffffffff1673ffffffffffffffffffffffffffffffffffffffff166108fc600184815481101515610ca757fe5b9060005260206000209060070201600201549081150290604051600060405180830381858888f19350505050158015610ce4573d6000803e3d6000fd5b50600082815481101515610cf457fe5b9060005260206000209060080201600701547f6b27cc1a97de4c4f3081bb6a7a4cf1ba803602f365d7d2bf8ee0aadd438691ff60405160405180910390a260019050919050565b6000606080600080869350859250835191508183511015610d5b57825191505b600090505b81811015610f9e578281815181101515610d7657fe5b9060200101517f010000000000000000000000000000000000000000000000000000000000000090047f0100000000000000000000000000000000000000000000000000000000000000027effffffffffffffffffffffffffffffffffffffffffffffffffffffffffffff19168482815181101515610df157fe5b9060200101517f010000000000000000000000000000000000000000000000000000000000000090047f0100000000000000000000000000000000000000000000000000000000000000027effffffffffffffffffffffffffffffffffffffffffffffffffffffffffffff19161015610e8c577fffffffffffffffffffffffffffffffffffffffffffffffffffffffffffffffff9450610fe8565b8281815181101515610e9a57fe5b9060200101517f010000000000000000000000000000000000000000000000000000000000000090047f0100000000000000000000000000000000000000000000000000000000000000027effffffffffffffffffffffffffffffffffffffffffffffffffffffffffffff19168482815181101515610f1557fe5b9060200101517f010000000000000000000000000000000000000000000000000000000000000090047f0100000000000000000000000000000000000000000000000000000000000000027effffffffffffffffffffffffffffffffffffffffffffffffffffffffffffff19161115610f915760019450610fe8565b8080600101915050610d60565b825184511015610fd0577fffffffffffffffffffffffffffffffffffffffffffffffffffffffffffffffff9450610fe8565b825184511115610fe35760019450610fe8565b600094505b5050505092915050565b600080610fff8484610d3b565b14905092915050565b60025481565b6000808281548110151561101e57fe5b906000526020600020906008020160010160009054906101000a900473ffffffffffffffffffffffffffffffffffffffff1673ffffffffffffffffffffffffffffffffffffffff163373ffffffffffffffffffffffffffffffffffffffff1614151561108957600080fd5b600160008381548110151561109a57fe5b906000526020600020906008020160060160006101000a81548160ff0219169083151502179055506040805190810160405280600681526020017f7369676e6564000000000000000000000000000000000000000000000000000081525060008381548110151561110757fe5b9060005260206000209060080201600501908051906020019061112b929190611f3f565b5060008281548110151561113b57fe5b9060005260206000209060080201600701547f9c595fee2c2bce7d195586307fa8dc16ed5ee0dd6c92438d42172b065336767660405160405180910390a260019050919050565b60008181548110151561119157fe5b90600052602060002090600802016000915090508060000160009054906101000a900473ffffffffffffffffffffffffffffffffffffffff16908060010160009054906101000a900473ffffffffffffffffffffffffffffffffffffffff16908060020160009054906101000a900473ffffffffffffffffffffffffffffffffffffffff1690806003018054600181600116156101000203166002900480601f0160208091040260200160405190810160405280929190818152602001828054600181600116156101000203166002900480156112af5780601f10611284576101008083540402835291602001916112af565b820191906000526020600020905b81548152906001019060200180831161129257829003601f168201915b505050505090806004018054600181600116156101000203166002900480601f01602080910402602001604051908101604052809291908181526020018280546001816001161561010002031660029004801561134d5780601f106113225761010080835404028352916020019161134d565b820191906000526020600020905b81548152906001019060200180831161133057829003601f168201915b505050505090806005018054600181600116156101000203166002900480601f0160208091040260200160405190810160405280929190818152602001828054600181600116156101000203166002900480156113eb5780601f106113c0576101008083540402835291602001916113eb565b820191906000526020600020905b8154815290600101906020018083116113ce57829003601f168201915b5050505050908060060160009054906101000a900460ff16908060070154905088565b600060608060008086935085925060018451108061142d575060018351105b80611439575083518351115b15611466577fffffffffffffffffffffffffffffffffffffffffffffffffffffffffffffffff9450611723565b6fffffffffffffffffffffffffffffffff845111156114a7577fffffffffffffffffffffffffffffffffffffffffffffffffffffffffffffffff9450611723565b60009150600090505b83518110156116ff578260008151811015156114c857fe5b9060200101517f010000000000000000000000000000000000000000000000000000000000000090047f0100000000000000000000000000000000000000000000000000000000000000027effffffffffffffffffffffffffffffffffffffffffffffffffffffffffffff1916848281518110151561154357fe5b9060200101517f010000000000000000000000000000000000000000000000000000000000000090047f0100000000000000000000000000000000000000000000000000000000000000027effffffffffffffffffffffffffffffffffffffffffffffffffffffffffffff191614156116f257600191505b8251821080156115cd57508351828201105b80156116ce575082828151811015156115e257fe5b9060200101517f010000000000000000000000000000000000000000000000000000000000000090047f0100000000000000000000000000000000000000000000000000000000000000027effffffffffffffffffffffffffffffffffffffffffffffffffffffffffffff19168483830181518110151561165f57fe5b9060200101517f010000000000000000000000000000000000000000000000000000000000000090047f0100000000000000000000000000000000000000000000000000000000000000027effffffffffffffffffffffffffffffffffffffffffffffffffffffffffffff1916145b156116e05781806001019250506115bb565b82518214156116f157809450611723565b5b80806001019150506114b0565b7fffffffffffffffffffffffffffffffffffffffffffffffffffffffffffffffff94505b5050505092915050565b6000808281548110151561173d57fe5b906000526020600020906008020160000160009054906101000a900473ffffffffffffffffffffffffffffffffffffffff1673ffffffffffffffffffffffffffffffffffffffff163373ffffffffffffffffffffffffffffffffffffffff161415156117a857600080fd5b60006001838154811015156117b957fe5b9060005260206000209060070201600601819055506000828154811015156117dd57fe5b906000526020600020906008020160000160009054906101000a900473ffffffffffffffffffffffffffffffffffffffff1673ffffffffffffffffffffffffffffffffffffffff166108fc60018481548110151561183757fe5b9060005260206000209060070201600601549081150290604051600060405180830381858888f19350505050158015611874573d6000803e3d6000fd5b5060008281548110151561188457fe5b9060005260206000209060080201600701547f8457dd222dc4f6c87085d410406d7bca37c2e83c4a14f220731907c3e9f611d060405160405180910390a260019050919050565b600080610100604051908101604052803373ffffffffffffffffffffffffffffffffffffffff1681526020018873ffffffffffffffffffffffffffffffffffffffff1681526020018773ffffffffffffffffffffffffffffffffffffffff1681526020018681526020016040805190810160405280600481526020017f746573740000000000000000000000000000000000000000000000000000000081525081526020016040805190810160405280600781526020017f637265617465640000000000000000000000000000000000000000000000000081525081526020016000151581526020016002548152509080600181540180825580915050906001820390600052602060002090600802016000909192909190915060008201518160000160006101000a81548173ffffffffffffffffffffffffffffffffffffffff021916908373ffffffffffffffffffffffffffffffffffffffff16021790555060208201518160010160006101000a81548173ffffffffffffffffffffffffffffffffffffffff021916908373ffffffffffffffffffffffffffffffffffffffff16021790555060408201518160020160006101000a81548173ffffffffffffffffffffffffffffffffffffffff021916908373ffffffffffffffffffffffffffffffffffffffff1602179055506060820151816003019080519060200190611ad6929190611fbf565b506080820151816004019080519060200190611af3929190611fbf565b5060a0820151816005019080519060200190611b10929190611fbf565b5060c08201518160060160006101000a81548160ff02191690831515021790555060e08201518160070155505050600160e060405190810160405280858152602001848152602001600081526020016001860281526020016000815260200160018152602001600081525090806001815401808255809150509060018203906000526020600020906007020160009091929091909150600082015181600001556020820151816001015560408201518160020155606082015181600301556080820151816004015560a0820151816005015560c082015181600601555050503360036000600254815260200190815260200160002060006101000a81548173ffffffffffffffffffffffffffffffffffffffff021916908373ffffffffffffffffffffffffffffffffffffffff160217905550600460003373ffffffffffffffffffffffffffffffffffffffff1673ffffffffffffffffffffffffffffffffffffffff168152602001908152602001600020600081548092919060010191905055506002547f51a585bc78606abb2cf6171a86d07e1c948488d356c076d0d950f04bde80596460405160405180910390a26002600081548092919060010191905055506001905095945050505050565b60008082815481101515611cf057fe5b906000526020600020906008020160010160009054906101000a900473ffffffffffffffffffffffffffffffffffffffff1673ffffffffffffffffffffffffffffffffffffffff163373ffffffffffffffffffffffffffffffffffffffff16141515611d5b57600080fd5b600182815481101515611d6a57fe5b90600052602060002090600702016000015434141515611d8957600080fd5b34600183815481101515611d9957fe5b90600052602060002090600702016004016000828254019250508190555034600183815481101515611dc757fe5b906000526020600020906007020160060160008282540192505081905550600082815481101515611df457fe5b9060005260206000209060080201600701547f2413f1b3243561b452d05d34030809f36977c795056cfa4b370dbf1d5322fb4b60405160405180910390a2600182815481101515611e4157fe5b906000526020600020906007020160030154600183815481101515611e6257fe5b9060005260206000209060070201600401541415611ee5576040805190810160405280600881526020017f636f6d706c657465000000000000000000000000000000000000000000000000815250600083815481101515611ebf57fe5b90600052602060002090600802016005019080519060200190611ee3929190611f3f565b505b60019050919050565b600181815481101515611efd57fe5b90600052602060002090600702016000915090508060000154908060010154908060020154908060030154908060040154908060050154908060060154905087565b828054600181600116156101000203166002900490600052602060002090601f016020900481019282601f10611f8057805160ff1916838001178555611fae565b82800160010185558215611fae579182015b82811115611fad578251825591602001919060010190611f92565b5b509050611fbb919061203f565b5090565b828054600181600116156101000203166002900490600052602060002090601f016020900481019282601f1061200057805160ff191683800117855561202e565b8280016001018555821561202e579182015b8281111561202d578251825591602001919060010190612012565b5b50905061203b919061203f565b5090565b61206191905b8082111561205d576000816000905550600101612045565b5090565b905600a165627a7a72305820de11067e03659872da0f83fed33c7b1606ffde831ca36fa3d8a9d705b507956d0029",
  "source": "pragma solidity ^0.4.2;\r\n\r\n/** @title Leases Smart Contract */\r\ncontract Leases {\r\n\t\r\n\t// Hold basic lease information\r\n\tstruct Lease {\r\n    \taddress  landlord; \r\n    \taddress  tenant;\r\n    \taddress  litigator;\r\n    \tstring  physicalAddress;\r\n    \tstring  hashId;\r\n    \tstring  state;\r\n    \tbool  signature; \r\n    \tuint index;\r\n    }\r\n\r\n    // Hold detailed lease information\r\n    struct LeaseDetail {\r\n    \tuint rentPerMonth;\r\n   \t\tuint depositToPay;\r\n   \t\tuint depositPaid;\r\n\t   \tuint totalRentToPay;\r\n\t   \tuint rentPaid;\r\n\t   \tuint durationInMonth;\r\n\t   \tuint balanceToBeWithdrawn;\r\n    }\r\n    \r\n    // Leases storage on the Blockchain\r\n    Lease[] public leases;\r\n    LeaseDetail[] public leasesDetails;\r\n    \r\n    // Total number of leases\r\n    uint public leasesCount;\r\n    \r\n    // keep track of lease ownership -- index of lease => address of owner\r\n    mapping (uint => address) public leaseIndexToOwner;\r\n    // keep track of number of lease by owner -- address of owner => number of leases\r\n    mapping (address => uint) public ownershipContractCount;\r\n\r\n    // Events -- throw index of impacted lease\r\n    event leaseCreatedEvent (\r\n        uint indexed index\r\n    );\r\n    event leaseSignedEvent (\r\n    \tuint indexed index\r\n    );\r\n    event depositFullEvent (\r\n    \tuint indexed index\r\n    );\r\n    event rentPaidMonth (\r\n    \tuint indexed index\r\n    );\t\r\n    event rentWithdrawn (\r\n    \tuint indexed index\r\n    );\r\n    event depositWithdrawn (\r\n    \tuint indexed index\r\n    );\r\n\r\n\tconstructor() public {\r\n\t\t// empty constructor -- nothing to do\r\n\t}\r\n\r\n\t/**  Create a new lease\r\n      * param _tenant ethereum address of tenant\r\n      * param _litigator ethereum address of litigator\r\n      * param _physicalAddress -- address of lease \r\n      * param _rentPerMonth amount in wei\r\n      * param _deposit amount in wei\r\n      * return True if success\r\n      */\r\n\tfunction createLease(\r\n\t\t\t\t\t\taddress _tenant, \r\n\t\t\t\t\t\taddress _litigator, \r\n\t\t\t\t\t\tstring _physicalAddress, \r\n\t\t\t\t\t\tuint _rentPerMonth, \r\n\t\t\t\t\t\tuint _deposit) \r\n\t\tpublic \r\n\t\treturns(bool) \r\n\t\t{\r\n\t\t\t// push a new lease general information \r\n\t\t\tleases.push(\r\n\t\t\t\tLease(\r\n\t\t\t\t\tmsg.sender,  // landlord address is the sender of the transaction\r\n\t\t\t\t\t_tenant, \r\n\t\t\t\t\t_litigator, \r\n\t\t\t\t\t_physicalAddress, \r\n\t\t\t\t\t\"test\", // hash -- for proof of existence not yet implemented\r\n\t\t\t\t\t\"created\", // state : created\r\n\t\t\t\t\tfalse, // signed : false\r\n\t\t\t\t\tleasesCount // index of the lease = id of creation\r\n\t\t\t\t)\r\n\t\t\t);\r\n\r\n\t\t\t// push detailed information \r\n\t\t\tleasesDetails.push(\r\n\t\t\t\tLeaseDetail(\r\n\t\t\t\t\t_rentPerMonth, \r\n\t\t\t\t\t_deposit,\r\n\t\t\t\t\t0, // set payment balances to 0\r\n\t\t\t\t\t_rentPerMonth*1, // only 1 month duration for testing purposes\r\n\t\t\t\t\t0,\r\n\t\t\t\t\t1,\r\n\t\t\t\t\t0\r\n\t\t\t\t)\r\n\t\t\t);\r\n\r\n\t\t\t// assign ownership of the lease \r\n\t\t\tleaseIndexToOwner[leasesCount] = msg.sender;\r\n\t\t\townershipContractCount[msg.sender]++;\r\n\t\t\t// send event creation\r\n\t\t\temit leaseCreatedEvent(leasesCount);\r\n\t\t\t// increase total count of leases handled by smart contract \r\n\t\t\tleasesCount++;\r\n\t\t\treturn true;\r\n\t\t}\r\n\r\n\t/**  Tenant sign a lease\r\n      * param _index of the lease to be signed\r\n      * return True if success\r\n      */\r\n\tfunction signLease(uint _index) \r\n\t\tpublic\r\n\t\treturns(bool)\r\n\t\t{\r\n\t\t\t// check that the sender is the tenant of the lease\r\n\t\t\trequire(msg.sender == leases[_index].tenant);\r\n\t\t\t// sign here -- transaction mechanism ensure cryptographic signature\r\n\t\t\tleases[_index].signature = true;\r\n\t\t\t// change state to signed\r\n\t\t\tleases[_index].state=\"signed\";\r\n\t\t\t// emit event lease signed\r\n\t\t\temit leaseSignedEvent(leases[_index].index);\r\n\t\t\treturn true;\r\n\t\t}\r\n\r\n\t/**  Tenant pay deposit\r\n      * param _index of the affected lease \r\n      * return True if success\r\n      */\r\n\tfunction payDeposit(uint _index)\r\n\t\tpublic \r\n\t\tpayable\r\n\t\treturns(bool)\r\n\t\t{\r\n\t\t\t// check sender is the tenant and ether sent = deposit to pay\r\n\t\t\trequire(msg.sender == leases[_index].tenant);\r\n\t\t\trequire(msg.value == leasesDetails[_index].depositToPay);\r\n\t\t\t// register that deposit was paid for this lease\r\n\t\t\tleasesDetails[_index].depositPaid += msg.value;\r\n\t\t\t// state becomes active \r\n\t\t\tleases[_index].state = \"active\";\r\n\t\t\t// emit deposit paid event\r\n\t\t\temit depositFullEvent(leases[_index].index);\r\n\t\t\treturn true;\r\n\t\t}\r\n\r\n\t/**  Tenant pay rent\r\n      * param _index of the affected lease \r\n      * return True if success\r\n      */\r\n\tfunction payRent(uint _index)\r\n\t\tpublic\r\n\t\tpayable\r\n\t\treturns(bool)\r\n\t\t{\r\n\t\t\t// ensure sender is the tenant and amount of ether sent = rent per month\r\n\t\t\trequire(msg.sender == leases[_index].tenant);\r\n\t\t\trequire(msg.value == leasesDetails[_index].rentPerMonth);\r\n\t\t\t// register rent was paid\r\n\t\t\tleasesDetails[_index].rentPaid += msg.value;\r\n\t\t    leasesDetails[_index].balanceToBeWithdrawn += msg.value;\r\n\t\t    // emit event rent paid \r\n\t\t\temit rentPaidMonth(leases[_index].index);\r\n\t\t\t// if rent is complete, complete the lease\r\n\t\t\tif (leasesDetails[_index].rentPaid == leasesDetails[_index].totalRentToPay) {\r\n\t\t\t\tleases[_index].state = \"complete\";\r\n\t\t\t}\r\n\t\t\treturn true;\r\n\t\t}\r\n\r\n\t/**  Landlord withdraw rent\r\n      * param _index of the affected lease \r\n      * return True if success\r\n      */\r\n\tfunction withdrawRent(uint _index)\r\n\t\tpublic\r\n\t\treturns(bool)\r\n\t\t{\r\n\t\t\t// check sender is landlord \r\n\t\t\trequire(msg.sender == leases[_index].landlord);\r\n\t\t\t// set balance to 0 before transfer to avoid re-entrancy\r\n\t\t\tleasesDetails[_index].balanceToBeWithdrawn = 0;\r\n\t\t\t// transfer money from smart contract to landlord\r\n\t\t\taddress(leases[_index].landlord).transfer(leasesDetails[_index].balanceToBeWithdrawn);\r\n\t\t\t// event rent withdrawn\r\n\t\t\temit rentWithdrawn(leases[_index].index);\r\n\t\t\treturn true;\r\n\t\t}\r\n\r\n\t/**  Tenant withdraw deposit\r\n      * param _index of the affected lease \r\n      * return True if success\r\n      */\r\n\tfunction withdrawDeposit(uint _index)\r\n\t\tpublic\r\n\t\treturns(bool)\r\n\t\t{\r\n\t\t\t// check sender is tenant and the lease status is completed (all rent was paid)\r\n\t\t\trequire(msg.sender == leases[_index].tenant);\r\n\t\t\trequire(equal(leases[_index].state, \"complete\" ));\r\n\t\t\t// set balance to 0 before transfer to avoid re-entrancy\r\n\t\t\tleasesDetails[_index].depositPaid = 0;\r\n\t\t\t// transfer money from smart contract to tenant\r\n\t\t\taddress(leases[_index].tenant).transfer(leasesDetails[_index].depositPaid);\r\n\t\t\t// event deposit withdrawn \r\n\t\t\temit depositWithdrawn(leases[_index].index);\r\n\t\t\treturn true;\r\n\t\t}\r\n\r\n\r\n\t/**  \r\n      *  \r\n      * \r\n      *  \r\n      *  Library to compare strings\r\n      *  \r\n      * \r\n      *  \r\n      *                   \r\n      */\t\t\r\n\tfunction compare(string _a, string _b) public pure returns (int) {\r\n\r\n        bytes memory a = bytes(_a);\r\n        bytes memory b = bytes(_b);\r\n        uint minLength = a.length;\r\n        if (b.length < minLength) minLength = b.length;\r\n        //@todo unroll the loop into increments of 32 and do full 32 byte comparisons\r\n        for (uint i = 0; i < minLength; i ++)\r\n            if (a[i] < b[i])\r\n                return -1;\r\n            else if (a[i] > b[i])\r\n                return 1;\r\n        if (a.length < b.length)\r\n            return -1;\r\n        else if (a.length > b.length)\r\n            return 1;\r\n        else\r\n            return 0;\r\n    }\r\n\r\n    /// @dev Compares two strings and returns true iff they are equal.\r\n    function equal(string _a, string _b) public pure returns (bool) {\r\n\r\n        return compare(_a, _b) == 0;\r\n    }\r\n\r\n    /// @dev Finds the index of the first occurrence of _needle in _haystack\r\n    function indexOf(string _haystack, string _needle) public pure returns (int) {\r\n\r\n    \tbytes memory h = bytes(_haystack);\r\n    \tbytes memory n = bytes(_needle);\r\n    \tif(h.length < 1 || n.length < 1 || (n.length > h.length)) \r\n    \t\treturn -1;\r\n    \telse if(h.length > (2**128 -1)) // since we have to be able to return -1 (if the char isn't found or input error), this function must return an \"int\" type with a max length of (2^128 - 1)\r\n    \t\treturn -1;\t\t\t\t\t\t\t\t\t\r\n    \telse\r\n    \t{\r\n    \t\tuint subindex = 0;\r\n    \t\tfor (uint i = 0; i < h.length; i ++)\r\n    \t\t{\r\n    \t\t\tif (h[i] == n[0]) // found the first char of b\r\n    \t\t\t{\r\n    \t\t\t\tsubindex = 1;\r\n    \t\t\t\twhile(subindex < n.length && (i + subindex) < h.length && h[i + subindex] == n[subindex]) // search until the chars don't match or until we reach the end of a or b\r\n    \t\t\t\t{\r\n    \t\t\t\t\tsubindex++;\r\n    \t\t\t\t}\t\r\n    \t\t\t\tif(subindex == n.length)\r\n    \t\t\t\t\treturn int(i);\r\n    \t\t\t}\r\n    \t\t}\r\n    \t\treturn -1;\r\n    \t}\t\r\n    }\r\n}",
  "sourcePath": "C:\\Users\\adri1\\Desktop\\Perso\\Blockspace\\Blockspace-Good\\contracts\\Leases.sol",
  "compiler": {
    "name": "solc",
    "version": "0.4.24+commit.e67f0147.Emscripten.clang"
  },
  "schemaVersion": "2.0.1",
  "updatedAt": "2018-10-15T06:45:20.343Z"
}